:100000001DC037C036C035C034C033C032C031C067
:1000100030C02FC02EC02DC02CC02BC02AC029C07C
:1000200028C027C026C025C024C023C0E0C021C0EE
:1000300020C01FC0BAC01DC01CC01BC011241FBEE1
:10004000CFEFD2E0DEBFCDBF11E0A0E0B1E0E0E451
:10005000F2E002C005900D92AA30B107D9F722E074
:10006000AAE0B1E001C01D92AD30B207E1F7E1D0E6
:10007000E5C0C6CFE0910C0181E08E0F80930C01AA
:10008000F0E0E35FFE4F80810895D79ADF9A0895EC
:10009000DF9A0895DF980895109292008CE0809383
:1000A0009100109282008093810088E980939500EE
:1000B000809385008EE0809394008093840008955F
:1000C0009091960095FFFCCF8093900008959091B9
:1000D000860095FFFCCF8093800008951F93CF93F7
:1000E000DF9380910B0190910C01891749F1E92F61
:1000F000F0E0E35FFE4F891B9081891708F1BADFBA
:10010000C82FB8DF883199F08532F1F08930C1F419
:10011000C0E0D1E08991D4DF81E0CA30D807D1F7BF
:1001200082E0D5DF89E0DF91CF911F91D0CF8AE0C7
:10013000C7DF88E1C5DFC8E09DDFC2DFC150E1F75E
:10014000DF91CF911F91089580910C01E82FF0E08D
:10015000E35FFE4F91E02081211190E02181211188
:1001600090E02281211190E02381213011F491113E
:100170000EC08C2FACDF85E2AADF10E0C250DD0B91
:100180001C171D06ECF676DFA2DF1F5FF9CF8C5F30
:1001900080930C016FDF813021F4DF91CF911F91AB
:1001A00077CFDF91CF911F9175CF1F920F920FB62E
:1001B0000F9211248F939F93EF93FF93809196005A
:1001C00087FFFCCF9091900080910B01E82FF0E029
:1001D000E35FFE4F90838F5F80930B01FF91EF9160
:1001E0009F918F910F900FBE0F901F9018951F92A7
:1001F0000F920FB60F9211248F939F93EF93FF935B
:100200008091860087FFFCCF9091800080910B0148
:10021000E82FF0E0E35FFE4F90838F5F80930B0148
:10022000FF91EF919F918F910F900FBE0F901F90B4
:1002300018952BDF789430DF51DFFECFF894FFCF95
:0A0240000A1800000001000100018F
:00000001FF
