:100000001DC037C036C035C034C033C032C031C067
:1000100030C02FC02EC02DC02CC02BC02AC029C07C
:1000200028C027C026C025C024C023C0E7C021C0E7
:1000300020C01FC0C1C01DC01CC01BC011241FBEDA
:10004000CFEFD2E0DEBFCDBF11E0A0E0B1E0EEE443
:10005000F2E002C005900D92AA30B107D9F722E074
:10006000AAE0B1E001C01D92AD30B207E1F7E8D0DF
:10007000ECC0C6CFE0910C0181E08E0F80930C01A3
:10008000F0E0E35FFE4F80810895D79ADF9A0895EC
:10009000DF9A0895DF980895109292008CE0809383
:1000A0009100109282008093810088E980939500EE
:1000B000809385008EE0809394008093840008955F
:1000C0009091960095FFFCCF8093900008959091B9
:1000D000860095FFFCCF8093800008951F93CF93F7
:1000E000DF9390910B0180910C01981751F0E82F4C
:1000F000F0E0E35FFE4F2081223038F48F5F809381
:100100000C01DF91CF911F910895981B9217C8F3AE
:10011000B1DFC82FAFDF883199F08532D9F089304F
:1001200081F7C0E0D1E08991CBDF81E0CA30D80708
:10013000D1F782E0CCDF89E0DF91CF911F91C7CF6B
:100140008AE0BEDF88E1BCDFC8E094DFB9DFC150E0
:10015000E1F7D7CF80910C01E82FF0E0E35FFE4F8D
:1001600091E02081211190E02181211190E02281F4
:10017000211190E02381213011F491110FC08C2FB7
:10018000A6DF85E2A4DF10E0C250DD0B1C171D06C0
:100190000CF0B7CF6FDF9BDF1F5FF8CF8C5F8093D2
:1001A0000C0168DF813021F4DF91CF911F9170CF76
:1001B000DF91CF911F916ECF1F920F920FB60F92CA
:1001C00011248F939F93EF93FF938091960087FF65
:1001D000FCCF9091900080910B01E82FF0E0E35F5D
:1001E000FE4F90838F5F80930B01FF91EF919F9162
:1001F0008F910F900FBE0F901F9018951F920F9226
:100200000FB60F9211248F939F93EF93FF938091DA
:10021000860087FFFCCF9091800080910B01E82F32
:10022000F0E0E35FFE4F90838F5F80930B01FF91BF
:10023000EF919F918F910F900FBE0F901F90189587
:0E02400024DF789429DF4ADFFECFF894FFCF49
:0A024E000A18000000010001000181
:00000001FF
