:100000001DC02CC02BC02AC029C028C027C026C0B4
:1000100025C024C023C022C021C020C01FC01EC0D4
:100020001DC01CC01BC01AC019C018C017C016C004
:1000300015C014C032C012C011C010C011241FBEA0
:10004000CFEFD2E0DEBFCDBF21E0A0E0B1E001C044
:100050001D92A130B207E1F734D045C0D1CFD79A75
:10006000DF9A0895DF9A0895DF9808958BB380583A
:100070008BBB08951092920083E38093910088E9EE
:10008000809395008EE0809394000895909196005F
:1000900095FFFCCF8093900008951F920F920FB6AA
:1000A0000F9211248F938091960087FFFCCF80914F
:1000B0009000809300018F910F900FBE0F901F90C2
:1000C0001895CDDF7894D6DF80910001863621F433
:1000D000CBDF83E6DBDFF8CF809100018E36A1F71E
:0A00E000C1DF8CE6F7CFF894FFCFE4
:00000001FF
