:100000001DC037C036C035C034C033C032C031C067
:1000100030C02FC02EC02DC02CC02BC02AC029C07C
:1000200028C027C026C025C024C023C0BCC021C012
:1000300020C01FC091C01DC01CC01BC011241FBE0A
:10004000CFEFD2E0DEBFCDBF11E0A0E0B1E0E2E053
:10005000F2E002C005900D92AA30B107D9F721E075
:10006000AAE0B1E001C01D92AC38B207E1F7C2D0FE
:10007000C6C0C6CFE0910B0181E08E0F87FD07C09F
:1000800080930B01F0E0E45FFE4F808108951092B1
:100090000B01F8CFD79ADF9A0895DF9A0895DF9879
:1000A0000895109292008CE080939100109282004B
:1000B0008093810088E980939500809385008EE08D
:1000C000809394008093840008959091960095FF0A
:1000D000FCCF8093900008959091860095FFFCCF0F
:1000E000809380000895CF93DF9390910B018091CE
:1000F0000A019817B1F0D3DF80910B0190E02091B5
:100100000A0130E0281B390B845F9E4FFC0180817F
:100110008217130631F4AEDFADDF893029F0883164
:1001200089F0DF91CF910895C0E0D1E08991CDDFD2
:10013000F1E0CA30DF07D1F782E0CEDF89E0DF915E
:10014000CF91CACF8AE0C1DF88E1BFDFC8E092DF8C
:10015000BCDFC150E1F7E5CF1F920F920FB60F92AF
:1001600011248F939F93EF93FF938091960087FFC5
:10017000FCCF9091900080910A01E82FF0E0E45FBD
:10018000FE4F90838F5F87FD0BC080930A01FF9124
:10019000EF919F918F910F900FBE0F901F90189528
:1001A00010920A01F4CF1F920F920FB60F921124F2
:1001B0008F939F93EF93FF938091860087FFFCCFEF
:1001C0009091800080910A01E82FF0E0E45FFE4FFB
:1001D00090838F5F87FD0BC080930A01FF91EF91A1
:1001E0009F918F910F900FBE0F901F9018951092B6
:1001F0000A01F4CF4FDF789454DF75DFFECFF89417
:02020000FFCF2E
:0A0202000A180000000100010001CD
:00000001FF
