:100000001DC037C036C035C034C033C032C031C067
:1000100030C02FC02EC02DC02CC02BC02AC029C07C
:1000200028C027C026C025C024C023C0FEC021C0D0
:1000300020C01FC0D8C01DC01CC01BC011241FBEC3
:10004000CFEFD2E0DEBFCDBF11E0A0E0B1E0E0ED48
:10005000F4E002C005900D92AA30B107D9F722E072
:10006000AAE0B1E001C01D92AD30B207E1F7FFD0C8
:100070002DC2C6CFE0910C0181E08E0F80930C0160
:10008000F0E0E35FFE4F808108951FBC1EBC1DBCE5
:100090001CBC82E28FBD8AE18EBD80E29EE495BDEC
:1000A00084BD8CED95E099BD88BDD79A80E18093A1
:1000B000680080E4809366000895853B08F084EB37
:1000C000682F70E090E080E00AD12FE832EC41E345
:1000D00051E469D1D1D06C507E4F79BD68BD08958F
:1000E000109292008CE08093910010928200809395
:1000F000810088E980939500809385008EE080934D
:1001000094008093840008959091960095FFFCCF11
:100110008093900008959091860095FFFCCF809386
:10012000800008951F93CF93DF9380910B019091EE
:100130000C01891749F1E92FF0E0E35FFE4F891BBD
:100140009081891708F196DFC82F94DF883199F0E4
:100150008532F1F08930C1F4C0E0D1E08991D4DF7B
:1001600081E0CA30D807D1F782E0D5DF89E0DF919E
:10017000CF911F91D0CF8AE0C7DF88E1C5DFC8E00B
:1001800079DFC2DFC150E1F7DF91CF911F91089570
:1001900080910C01E82FF0E0E35FFE4F91E02081B9
:1001A000211190E02181211190E02281211190E024
:1001B0002381223011F491110EC08C2FACDF85E227
:1001C000AADF10E0C250DD0B1C171D06ECF652DF53
:1001D000A2DF1F5FF9CF8C5F80930C014BDFDF91B3
:1001E000CF911F916ACF1F920F920FB60F921124D9
:1001F0008F939F93EF93FF938091960087FFFCCF9F
:100200009091900080910B01E82FF0E0E35FFE4FAA
:1002100090838F5F80930B01FF91EF919F918F915E
:100220000F900FBE0F901F9018951F920F920FB650
:100230000F9211248F939F93EF93FF9380918600E9
:1002400087FFFCCF9091800080910B01E82FF0E0B8
:10025000E35FFE4F90838F5F80930B01FF91EF91DF
:100260009F918F910F900FBE0F901F9018950DDFEB
:10027000789436DF57DFFECF04D06894B1118DC07B
:10028000089570D088F09F5790F0B92F9927B751F3
:10029000A0F0D1F0660F771F881F991F1AF0BA954A
:1002A000C9F712C0B13081F077D0B1E0089574C0C1
:1002B000672F782F8827B85F39F0B93FCCF3869540
:1002C00077956795B395D9F73EF49095809570959D
:1002D00061957F4F8F4F9F4F0895E89409C097FB1A
:1002E0003EF490958095709561957F4F8F4F9F4F0D
:1002F0009923A9F0F92F96E9BB279395F695879551
:1003000077956795B795F111F8CFFAF4BB0F11F413
:1003100060FF1BC06F5F7F4F8F4F9F4F16C08823BA
:1003200011F096E911C0772321F09EE8872F762FF0
:1003300005C0662371F096E8862F70E060E02AF031
:100340009A95660F771F881FDAF7880F969587951D
:1003500097F9089557FD9058440F551F59F05F3F86
:1003600071F04795880F97FB991F61F09F3F79F0D7
:1003700087950895121613061406551FF2CF469559
:10038000F1DF08C0161617061806991FF1CF8695DB
:100390007105610508940895E894BB2766277727BF
:1003A000CB0197F908950AD080C071D028F076D09B
:1003B00018F0952309F062C067C0EFCFCBDFA8F338
:1003C0009923D9F35523C9F3950F50E0551FAA2758
:1003D000EE27FF27BB2700240894679520F4E20F3F
:1003E000F31FB41F0A1E220F331F441FAA1F669556
:1003F000A9F7779530F4F30FB41F0A1E121E08F404
:100400006395330F441FAA1F221F769599F787958E
:1004100020F4B40F0A1E121E631F440FAA1F221FCE
:10042000331F8695A9F7862F712D602D11249F57B4
:1004300050408AF0E1F088234AF0EE0FFF1FBB1F07
:10044000661F771F881F91505040A9F79E3F5105A6
:1004500070F014C0A2CF5F3FECF3983EDCF38695BA
:1004600077956795B795F795E7959F5FC1F7FE2B51
:10047000880F911D9695879597F9089597F99F672D
:1004800080E870E060E008959FEF80EC089500241C
:100490000A941616170618060906089500240A94E9
:1004A00012161306140605060895092E0394000C6F
:1004B00011F4882352F0BB0F40F4BF2B11F460FFFE
:1004C00004C06F5F7F4F8F4F9F4F0895F894FFCF09
:0A04D0000A180000000200030001FA
:00000001FF
