:100000001DC037C036C035C034C033C032C031C067
:10001000CCC12FC02EC02DC02CC02BC02AC029C0DF
:1000200028C027C026C025C024C023C09CC121C031
:1000300020C01FC076C11DC01CC01BC011241FBE24
:10004000CFEFD2E0DEBFCDBF11E0A0E0B1E0E4E74A
:10005000F6E002C005900D92AA30B107D9F722E070
:10006000AAE0B1E001C01D92A131B207E1F7C0D111
:10007000FFC2C6CFE0910C0181E08E0F80930C018E
:10008000F0E0E15FFE4F808108951FBC1EBC1DBCE7
:100090001CBC82E28FBD8AE18EBD80E29EE495BDEC
:1000A00084BD8CED95E099BD88BD90930E01809341
:1000B0000D019093100280930F02D79A80E18093F4
:1000C000680080E48093660081E08FB90895853BE5
:1000D00008F084EB682F70E090E080E0D2D12FE848
:1000E00032EC41E351E431D299D16C507E4F7093A0
:1000F000100260930F02089590E001966AE070E0AC
:100100007CD120910F023091100244EC59E0BA01E9
:10011000681B790B2617370728F05093100240937D
:100120000F020895820F931F9093100280930F0285
:10013000089590E001966AE070E05FD120910F028F
:1001400030911002AC014C505E4F4217530738F00B
:1001500084EF91E09093100280930F020895281B82
:10016000390B3093100220930F02089520910D0156
:1001700030910E0180910F029091100228173907DB
:10018000C1F082179307B0F4A901481B590BCA01AB
:100190004F31510514F08EE190E0281B390B30935C
:1001A0000E0120930D0180910D0190910E0199BDDA
:1001B00088BD089528173907B0F7821B930B8F313C
:1001C000910514F08EE190E0820F931F90930E0141
:1001D00080930D01E8CF109292008CE08093910003
:1001E000109282008093810088E98093950080932B
:1001F00085008EE080939400809384000895909110
:10020000960095FFFCCF8093900008959091860012
:1002100095FFFCCF8093800008951F93CF93DF93C9
:1002200090910B0180910C01981751F0E82FF0E0AC
:10023000E15FFE4F2081223038F48F5F80930C0104
:10024000DF91CF911F910895981B9217C8F312DF89
:10025000C82F10DF883199F08532D9F0893081F7C5
:10026000C0E0D1E08991CBDF81E0CA30D807D1F777
:1002700082E0CCDF89E0DF91CF911F91C7CF8AE088
:10028000BEDF88E1BCDFC8E0F5DEB9DFC150E1F7D1
:10029000D7CFE0910C01AE2FB0E0A15FBE4F81E05F
:1002A0009C91911180E011969C911197911180E0A1
:1002B00012969C911297911180E013969C91933025
:1002C00011F481110FC08C2FA1DF85E29FDF10E0B8
:1002D000C250DD0B1C171D060CF0B2CFCBDE96DF33
:1002E0001F5FF8CFEC5FE0930C01F0E0E15FFE4FA1
:1002F00080819AE1980F9A3030F4BCDE865EDF91FF
:10030000CF911F9116CF805F8A3030F4B3DE805FCB
:10031000DF91CF911F91F0CEADDEDF91CF911F9194
:10032000D6CE1F920F920FB60F9211248F939F93E8
:10033000EF93FF938091960087FFFCCF9091900000
:1003400080910B01E82FF0E0E15FFE4F90838F5F1B
:1003500080930B01FF91EF919F918F910F900FBEB2
:100360000F901F9018951F920F920FB60F921124A5
:100370008F939F93EF93FF938091860087FFFCCF2D
:100380009091800080910B01E82FF0E0E15FFE4F3B
:1003900090838F5F80930B01FF91EF919F918F91DD
:1003A0000F900FBE0F901F9018951F920F920FB6CF
:1003B0000F9211242F933F934F935F936F937F93EB
:1003C0008F939F93AF93BF93EF93FF93CFDEFF91F4
:1003D000EF91BF91AF919F918F917F916F915F91BD
:1003E0004F913F912F910F900FBE0F901F90189536
:1003F0004CDE7894F0DE11DFFECF0024552704C0D8
:10040000080E591F880F991F009729F07695679558
:10041000B8F37105B9F7802D952F089504D068942D
:10042000B1118DC0089570D088F09F5790F0B92F0A
:100430009927B751A0F0D1F0660F771F881F991F39
:100440001AF0BA95C9F712C0B13081F077D0B1E097
:10045000089574C0672F782F8827B85F39F0B93FA7
:10046000CCF3869577956795B395D9F73EF490953B
:100470008095709561957F4F8F4F9F4F0895E894B9
:1004800009C097FB3EF490958095709561957F4FDC
:100490008F4F9F4F9923A9F0F92F96E9BB2793958A
:1004A000F695879577956795B795F111F8CFFAF49A
:1004B000BB0F11F460FF1BC06F5F7F4F8F4F9F4FCB
:1004C00016C0882311F096E911C0772321F09EE829
:1004D000872F762F05C0662371F096E8862F70E08F
:1004E00060E02AF09A95660F771F881FDAF7880F69
:1004F0009695879597F9089557FD9058440F551F85
:1005000059F05F3F71F04795880F97FB991F61F095
:100510009F3F79F087950895121613061406551F0C
:10052000F2CF4695F1DF08C0161617061806991F78
:10053000F1CF86957105610508940895E894BB276D
:1005400066277727CB0197F908950AD080C071D02C
:1005500028F076D018F0952309F062C067C0EFCF7D
:10056000CBDFA8F39923D9F35523C9F3950F50E0B6
:10057000551FAA27EE27FF27BB270024089467955D
:1005800020F4E20FF31FB41F0A1E220F331F441F73
:10059000AA1F6695A9F7779530F4F30FB41F0A1ECA
:1005A000121E08F46395330F441FAA1F221F76956D
:1005B00099F7879520F4B40F0A1E121E631F440F8B
:1005C000AA1F221F331F8695A9F7862F712D602D34
:1005D00011249F5750408AF0E1F088234AF0EE0F33
:1005E000FF1FBB1F661F771F881F91505040A9F740
:1005F0009E3F510570F014C0A2CF5F3FECF3983ED0
:10060000DCF3869577956795B795F795E7959F5FA6
:10061000C1F7FE2B880F911D9695879597F9089540
:1006200097F99F6780E870E060E008959FEF80ECA5
:10063000089500240A941616170618060906089548
:1006400000240A9412161306140605060895092EAE
:100650000394000C11F4882352F0BB0F40F4BF2B1D
:1006600011F460FF04C06F5F7F4F8F4F9F4F08955D
:04067000F894FFCF2C
:0A0674000A18000000030001000155
:00000001FF
